{"contracts/SushiSwapWallet.sol":{"SushiSwapWallet":{"abi":[{"inputs":[{"internalType":"address","name":"","type":"address"},{"internalType":"address","name":"","type":"address"}],"name":"balances","outputs":[{"internalType":"uint256","name":"","type":"uint256"}],"stateMutability":"view","type":"function"},{"inputs":[{"internalType":"address","name":"token_","type":"address"},{"internalType":"uint256","name":"amount_","type":"uint256"}],"name":"deposit","outputs":[],"stateMutability":"payable","type":"function"},{"inputs":[{"internalType":"address","name":"token1","type":"address"},{"internalType":"address","name":"token2","type":"address"},{"internalType":"uint256","name":"amount1","type":"uint256"},{"internalType":"uint256","name":"amount2","type":"uint256"},{"internalType":"uint256","name":"pid","type":"uint256"},{"internalType":"address","name":"to","type":"address"}],"name":"execute","outputs":[],"stateMutability":"nonpayable","type":"function"},{"inputs":[{"internalType":"address","name":"token1","type":"address"},{"internalType":"address","name":"token2","type":"address"},{"internalType":"uint256","name":"amount1","type":"uint256"},{"internalType":"uint256","name":"amount2","type":"uint256"},{"internalType":"uint256","name":"pid","type":"uint256"},{"internalType":"address","name":"token","type":"address"},{"internalType":"address","name":"to","type":"address"}],"name":"executeWithSLPTokenAddress","outputs":[],"stateMutability":"nonpayable","type":"function"}],"evm":{"bytecode":{"linkReferences":{},"object":"608060405234801561001057600080fd5b50611c89806100206000396000f3fe60806040526004361061003f5760003560e01c80633d687d7c1461004457806347e7ef241461006d578063c23f001f14610089578063cc238da7146100c6575b600080fd5b34801561005057600080fd5b5061006b6004803603810190610066919061144b565b6100ef565b005b610087600480360381019061008291906114ed565b610235565b005b34801561009557600080fd5b506100b060048036038101906100ab919061152d565b61053b565b6040516100bd919061157c565b60405180910390f35b3480156100d257600080fd5b506100ed60048036038101906100e89190611597565b610560565b005b6100f987866109b1565b61010386856109b1565b846000803373ffffffffffffffffffffffffffffffffffffffff1673ffffffffffffffffffffffffffffffffffffffff16815260200190815260200160002060008973ffffffffffffffffffffffffffffffffffffffff1673ffffffffffffffffffffffffffffffffffffffff16815260200190815260200160002060008282540392505081905550836000803373ffffffffffffffffffffffffffffffffffffffff1673ffffffffffffffffffffffffffffffffffffffff16815260200190815260200160002060008873ffffffffffffffffffffffffffffffffffffffff1673ffffffffffffffffffffffffffffffffffffffff1681526020019081526020016000206000828254039250508190555061022187878787610aac565b61022c828483610cbe565b50505050505050565b600073ffffffffffffffffffffffffffffffffffffffff168273ffffffffffffffffffffffffffffffffffffffff16146102fa578173ffffffffffffffffffffffffffffffffffffffff166323b872dd3330846040518463ffffffff1660e01b81526004016102a693929190611633565b602060405180830381600087803b1580156102c057600080fd5b505af11580156102d4573d6000803e3d6000fd5b505050506040513d601f19601f820116820180604052508101906102f891906116a2565b505b60008073ffffffffffffffffffffffffffffffffffffffff168373ffffffffffffffffffffffffffffffffffffffff16146103355781610337565b345b90506103f36040518060400160405280600281526020017f623a0000000000000000000000000000000000000000000000000000000000008152506000803373ffffffffffffffffffffffffffffffffffffffff1673ffffffffffffffffffffffffffffffffffffffff16815260200190815260200160002060008673ffffffffffffffffffffffffffffffffffffffff1673ffffffffffffffffffffffffffffffffffffffff1681526020019081526020016000205461101b565b806000803373ffffffffffffffffffffffffffffffffffffffff1673ffffffffffffffffffffffffffffffffffffffff16815260200190815260200160002060008573ffffffffffffffffffffffffffffffffffffffff1673ffffffffffffffffffffffffffffffffffffffff168152602001908152602001600020600082825401925050819055506105366040518060400160405280600281526020017f613a0000000000000000000000000000000000000000000000000000000000008152506000803373ffffffffffffffffffffffffffffffffffffffff1673ffffffffffffffffffffffffffffffffffffffff16815260200190815260200160002060008673ffffffffffffffffffffffffffffffffffffffff1673ffffffffffffffffffffffffffffffffffffffff1681526020019081526020016000205461101b565b505050565b6000602052816000526040600020602052806000526040600020600091509150505481565b61056a86856109b1565b61057485846109b1565b61062e6040518060400160405280600281526020017f62310000000000000000000000000000000000000000000000000000000000008152506000803373ffffffffffffffffffffffffffffffffffffffff1673ffffffffffffffffffffffffffffffffffffffff16815260200190815260200160002060008973ffffffffffffffffffffffffffffffffffffffff1673ffffffffffffffffffffffffffffffffffffffff1681526020019081526020016000205461101b565b6106e86040518060400160405280600281526020017f62310000000000000000000000000000000000000000000000000000000000008152506000803373ffffffffffffffffffffffffffffffffffffffff1673ffffffffffffffffffffffffffffffffffffffff16815260200190815260200160002060008873ffffffffffffffffffffffffffffffffffffffff1673ffffffffffffffffffffffffffffffffffffffff1681526020019081526020016000205461101b565b836000803373ffffffffffffffffffffffffffffffffffffffff1673ffffffffffffffffffffffffffffffffffffffff16815260200190815260200160002060008873ffffffffffffffffffffffffffffffffffffffff1673ffffffffffffffffffffffffffffffffffffffff16815260200190815260200160002060008282540392505081905550826000803373ffffffffffffffffffffffffffffffffffffffff1673ffffffffffffffffffffffffffffffffffffffff16815260200190815260200160002060008773ffffffffffffffffffffffffffffffffffffffff1673ffffffffffffffffffffffffffffffffffffffff168152602001908152602001600020600082825403925050819055506108b46040518060400160405280600281526020017f61310000000000000000000000000000000000000000000000000000000000008152506000803373ffffffffffffffffffffffffffffffffffffffff1673ffffffffffffffffffffffffffffffffffffffff16815260200190815260200160002060008973ffffffffffffffffffffffffffffffffffffffff1673ffffffffffffffffffffffffffffffffffffffff1681526020019081526020016000205461101b565b61096e6040518060400160405280600281526020017f61320000000000000000000000000000000000000000000000000000000000008152506000803373ffffffffffffffffffffffffffffffffffffffff1673ffffffffffffffffffffffffffffffffffffffff16815260200190815260200160002060008873ffffffffffffffffffffffffffffffffffffffff1673ffffffffffffffffffffffffffffffffffffffff1681526020019081526020016000205461101b565b61097a86868686610aac565b600061099b73c0aee478e3658e2610c5f7a4a2e1777ce9e4f2ac88886110b7565b90506109a8818484610cbe565b50505050505050565b806000803373ffffffffffffffffffffffffffffffffffffffff1673ffffffffffffffffffffffffffffffffffffffff16815260200190815260200160002060008473ffffffffffffffffffffffffffffffffffffffff1673ffffffffffffffffffffffffffffffffffffffff1681526020019081526020016000205410156040518060400160405280601581526020017f496e73756666696369656e742062616c616e63652e000000000000000000000081525090610aa7576040517f08c379a0000000000000000000000000000000000000000000000000000000008152600401610a9e9190611768565b60405180910390fd5b505050565b8373ffffffffffffffffffffffffffffffffffffffff1663095ea7b373d9e1ce17f2641f24ae83637ab66a2cca9c378b9f846040518363ffffffff1660e01b8152600401610afb92919061178a565b602060405180830381600087803b158015610b1557600080fd5b505af1158015610b29573d6000803e3d6000fd5b505050506040513d601f19601f82011682018060405250810190610b4d91906116a2565b508273ffffffffffffffffffffffffffffffffffffffff1663095ea7b373d9e1ce17f2641f24ae83637ab66a2cca9c378b9f836040518363ffffffff1660e01b8152600401610b9d92919061178a565b602060405180830381600087803b158015610bb757600080fd5b505af1158015610bcb573d6000803e3d6000fd5b505050506040513d601f19601f82011682018060405250810190610bef91906116a2565b5073d9e1ce17f2641f24ae83637ab66a2cca9c378b9f73ffffffffffffffffffffffffffffffffffffffff1663e8e3370085858585600a88610c3191906117e2565b606488610c3e91906117e2565b30426040518963ffffffff1660e01b8152600401610c63989796959493929190611813565b606060405180830381600087803b158015610c7d57600080fd5b505af1158015610c91573d6000803e3d6000fd5b505050506040513d601f19601f82011682018060405250810190610cb591906118a6565b50505050505050565b610cc783611129565b60008373ffffffffffffffffffffffffffffffffffffffff166370a08231306040518263ffffffff1660e01b8152600401610d0291906118f9565b60206040518083038186803b158015610d1a57600080fd5b505afa158015610d2e573d6000803e3d6000fd5b505050506040513d601f19601f82011682018060405250810190610d529190611914565b9050610d926040518060400160405280600581526020017f70617365640000000000000000000000000000000000000000000000000000008152506111c2565b600073ffffffffffffffffffffffffffffffffffffffff168273ffffffffffffffffffffffffffffffffffffffff1614610ef1578373ffffffffffffffffffffffffffffffffffffffff1663095ea7b373ef0881ec094552b2e128cf945ef17a6752b4ec5d836040518363ffffffff1660e01b8152600401610e1592919061178a565b602060405180830381600087803b158015610e2f57600080fd5b505af1158015610e43573d6000803e3d6000fd5b505050506040513d601f19601f82011682018060405250810190610e6791906116a2565b5073ef0881ec094552b2e128cf945ef17a6752b4ec5d73ffffffffffffffffffffffffffffffffffffffff16638dbdbe6d8483856040518463ffffffff1660e01b8152600401610eb993929190611941565b600060405180830381600087803b158015610ed357600080fd5b505af1158015610ee7573d6000803e3d6000fd5b5050505050611016565b8373ffffffffffffffffffffffffffffffffffffffff1663095ea7b373c2edad668740f1aa35e4d8f227fb8e17dca888cd836040518363ffffffff1660e01b8152600401610f4092919061178a565b602060405180830381600087803b158015610f5a57600080fd5b505af1158015610f6e573d6000803e3d6000fd5b505050506040513d601f19601f82011682018060405250810190610f9291906116a2565b5073c2edad668740f1aa35e4d8f227fb8e17dca888cd73ffffffffffffffffffffffffffffffffffffffff1663e2bbb15884836040518363ffffffff1660e01b8152600401610fe2929190611978565b600060405180830381600087803b158015610ffc57600080fd5b505af1158015611010573d6000803e3d6000fd5b50505050505b505050565b6110b382826040516024016110319291906119a1565b6040516020818303038152906040527fb60e72cc000000000000000000000000000000000000000000000000000000007bffffffffffffffffffffffffffffffffffffffffffffffffffffffff19166020820180517bffffffffffffffffffffffffffffffffffffffffffffffffffffffff838183161783525050505061125b565b5050565b60008060006110c68585611284565b915091508582826040516020016110de929190611a19565b60405160208183030381529060405280519060200120604051602001611105929190611b13565b6040516020818303038152906040528051906020012060001c925050509392505050565b6111bf8160405160240161113d91906118f9565b6040516020818303038152906040527f2c2ecbc2000000000000000000000000000000000000000000000000000000007bffffffffffffffffffffffffffffffffffffffffffffffffffffffff19166020820180517bffffffffffffffffffffffffffffffffffffffffffffffffffffffff838183161783525050505061125b565b50565b611258816040516024016111d69190611768565b6040516020818303038152906040527f41304fac000000000000000000000000000000000000000000000000000000007bffffffffffffffffffffffffffffffffffffffffffffffffffffffff19166020820180517bffffffffffffffffffffffffffffffffffffffffffffffffffffffff838183161783525050505061125b565b50565b60008151905060006a636f6e736f6c652e6c6f679050602083016000808483855afa5050505050565b6000808273ffffffffffffffffffffffffffffffffffffffff168473ffffffffffffffffffffffffffffffffffffffff1614156112f6576040517f08c379a00000000000000000000000000000000000000000000000000000000081526004016112ed90611bc7565b60405180910390fd5b8273ffffffffffffffffffffffffffffffffffffffff168473ffffffffffffffffffffffffffffffffffffffff1610611330578284611333565b83835b8092508193505050600073ffffffffffffffffffffffffffffffffffffffff168273ffffffffffffffffffffffffffffffffffffffff1614156113ab576040517f08c379a00000000000000000000000000000000000000000000000000000000081526004016113a290611c33565b60405180910390fd5b9250929050565b600080fd5b600073ffffffffffffffffffffffffffffffffffffffff82169050919050565b60006113e2826113b7565b9050919050565b6113f2816113d7565b81146113fd57600080fd5b50565b60008135905061140f816113e9565b92915050565b6000819050919050565b61142881611415565b811461143357600080fd5b50565b6000813590506114458161141f565b92915050565b600080600080600080600060e0888a03121561146a576114696113b2565b5b60006114788a828b01611400565b97505060206114898a828b01611400565b965050604061149a8a828b01611436565b95505060606114ab8a828b01611436565b94505060806114bc8a828b01611436565b93505060a06114cd8a828b01611400565b92505060c06114de8a828b01611400565b91505092959891949750929550565b60008060408385031215611504576115036113b2565b5b600061151285828601611400565b925050602061152385828601611436565b9150509250929050565b60008060408385031215611544576115436113b2565b5b600061155285828601611400565b925050602061156385828601611400565b9150509250929050565b61157681611415565b82525050565b6000602082019050611591600083018461156d565b92915050565b60008060008060008060c087890312156115b4576115b36113b2565b5b60006115c289828a01611400565b96505060206115d389828a01611400565b95505060406115e489828a01611436565b94505060606115f589828a01611436565b935050608061160689828a01611436565b92505060a061161789828a01611400565b9150509295509295509295565b61162d816113d7565b82525050565b60006060820190506116486000830186611624565b6116556020830185611624565b611662604083018461156d565b949350505050565b60008115159050919050565b61167f8161166a565b811461168a57600080fd5b50565b60008151905061169c81611676565b92915050565b6000602082840312156116b8576116b76113b2565b5b60006116c68482850161168d565b91505092915050565b600081519050919050565b600082825260208201905092915050565b60005b838110156117095780820151818401526020810190506116ee565b83811115611718576000848401525b50505050565b6000601f19601f8301169050919050565b600061173a826116cf565b61174481856116da565b93506117548185602086016116eb565b61175d8161171e565b840191505092915050565b60006020820190508181036000830152611782818461172f565b905092915050565b600060408201905061179f6000830185611624565b6117ac602083018461156d565b9392505050565b7f4e487b7100000000000000000000000000000000000000000000000000000000600052601260045260246000fd5b60006117ed82611415565b91506117f883611415565b925082611808576118076117b3565b5b828204905092915050565b600061010082019050611829600083018b611624565b611836602083018a611624565b611843604083018961156d565b611850606083018861156d565b61185d608083018761156d565b61186a60a083018661156d565b61187760c0830185611624565b61188460e083018461156d565b9998505050505050505050565b6000815190506118a08161141f565b92915050565b6000806000606084860312156118bf576118be6113b2565b5b60006118cd86828701611891565b93505060206118de86828701611891565b92505060406118ef86828701611891565b9150509250925092565b600060208201905061190e6000830184611624565b92915050565b60006020828403121561192a576119296113b2565b5b600061193884828501611891565b91505092915050565b6000606082019050611956600083018661156d565b611963602083018561156d565b6119706040830184611624565b949350505050565b600060408201905061198d600083018561156d565b61199a602083018461156d565b9392505050565b600060408201905081810360008301526119bb818561172f565b90506119ca602083018461156d565b9392505050565b60008160601b9050919050565b60006119e9826119d1565b9050919050565b60006119fb826119de565b9050919050565b611a13611a0e826113d7565b6119f0565b82525050565b6000611a258285611a02565b601482019150611a358284611a02565b6014820191508190509392505050565b600081905092915050565b7fff00000000000000000000000000000000000000000000000000000000000000600082015250565b6000611a86600183611a45565b9150611a9182611a50565b600182019050919050565b6000819050919050565b6000819050919050565b611ac1611abc82611a9c565b611aa6565b82525050565b7fe18a34eb0e04b04f7a0ac29a6e80748dca96319b42c54d679cb821dca90c6303600082015250565b6000611afd602083611a45565b9150611b0882611ac7565b602082019050919050565b6000611b1e82611a79565b9150611b2a8285611a02565b601482019150611b3a8284611ab0565b602082019150611b4982611af0565b91508190509392505050565b7f556e697377617056324c6962726172793a204944454e544943414c5f4144445260008201527f4553534553000000000000000000000000000000000000000000000000000000602082015250565b6000611bb16025836116da565b9150611bbc82611b55565b604082019050919050565b60006020820190508181036000830152611be081611ba4565b9050919050565b7f556e697377617056324c6962726172793a205a45524f5f414444524553530000600082015250565b6000611c1d601e836116da565b9150611c2882611be7565b602082019050919050565b60006020820190508181036000830152611c4c81611c10565b905091905056fea264697066735822122000d62ded355b360f47102f4d6572e1bc4abeb803e2a444c75031f9135c5654ee64736f6c63430008090033","opcodes":"PUSH1 0x80 PUSH1 0x40 MSTORE CALLVALUE DUP1 ISZERO PUSH2 0x10 JUMPI PUSH1 0x0 DUP1 REVERT JUMPDEST POP PUSH2 0x1C89 DUP1 PUSH2 0x20 PUSH1 0x0 CODECOPY PUSH1 0x0 RETURN INVALID PUSH1 0x80 PUSH1 0x40 MSTORE PUSH1 0x4 CALLDATASIZE LT PUSH2 0x3F JUMPI PUSH1 0x0 CALLDATALOAD PUSH1 0xE0 SHR DUP1 PUSH4 0x3D687D7C EQ PUSH2 0x44 JUMPI DUP1 PUSH4 0x47E7EF24 EQ PUSH2 0x6D JUMPI DUP1 PUSH4 0xC23F001F EQ PUSH2 0x89 JUMPI DUP1 PUSH4 0xCC238DA7 EQ PUSH2 0xC6 JUMPI JUMPDEST PUSH1 0x0 DUP1 REVERT JUMPDEST CALLVALUE DUP1 ISZERO PUSH2 0x50 JUMPI PUSH1 0x0 DUP1 REVERT JUMPDEST POP PUSH2 0x6B PUSH1 0x4 DUP1 CALLDATASIZE SUB DUP2 ADD SWAP1 PUSH2 0x66 SWAP2 SWAP1 PUSH2 0x144B JUMP JUMPDEST PUSH2 0xEF JUMP JUMPDEST STOP JUMPDEST PUSH2 0x87 PUSH1 0x4 DUP1 CALLDATASIZE SUB DUP2 ADD SWAP1 PUSH2 0x82 SWAP2 SWAP1 PUSH2 0x14ED JUMP JUMPDEST PUSH2 0x235 JUMP JUMPDEST STOP JUMPDEST CALLVALUE DUP1 ISZERO PUSH2 0x95 JUMPI PUSH1 0x0 DUP1 REVERT JUMPDEST POP PUSH2 0xB0 PUSH1 0x4 DUP1 CALLDATASIZE SUB DUP2 ADD SWAP1 PUSH2 0xAB SWAP2 SWAP1 PUSH2 0x152D JUMP JUMPDEST PUSH2 0x53B JUMP JUMPDEST PUSH1 0x40 MLOAD PUSH2 0xBD SWAP2 SWAP1 PUSH2 0x157C JUMP JUMPDEST PUSH1 0x40 MLOAD DUP1 SWAP2 SUB SWAP1 RETURN JUMPDEST CALLVALUE DUP1 ISZERO PUSH2 0xD2 JUMPI PUSH1 0x0 DUP1 REVERT JUMPDEST POP PUSH2 0xED PUSH1 0x4 DUP1 CALLDATASIZE SUB DUP2 ADD SWAP1 PUSH2 0xE8 SWAP2 SWAP1 PUSH2 0x1597 JUMP JUMPDEST PUSH2 0x560 JUMP JUMPDEST STOP JUMPDEST PUSH2 0xF9 DUP8 DUP7 PUSH2 0x9B1 JUMP JUMPDEST PUSH2 0x103 DUP7 DUP6 PUSH2 0x9B1 JUMP JUMPDEST DUP5 PUSH1 0x0 DUP1 CALLER PUSH20 0xFFFFFFFFFFFFFFFFFFFFFFFFFFFFFFFFFFFFFFFF AND PUSH20 0xFFFFFFFFFFFFFFFFFFFFFFFFFFFFFFFFFFFFFFFF AND DUP2 MSTORE PUSH1 0x20 ADD SWAP1 DUP2 MSTORE PUSH1 0x20 ADD PUSH1 0x0 KECCAK256 PUSH1 0x0 DUP10 PUSH20 0xFFFFFFFFFFFFFFFFFFFFFFFFFFFFFFFFFFFFFFFF AND PUSH20 0xFFFFFFFFFFFFFFFFFFFFFFFFFFFFFFFFFFFFFFFF AND DUP2 MSTORE PUSH1 0x20 ADD SWAP1 DUP2 MSTORE PUSH1 0x20 ADD PUSH1 0x0 KECCAK256 PUSH1 0x0 DUP3 DUP3 SLOAD SUB SWAP3 POP POP DUP2 SWAP1 SSTORE POP DUP4 PUSH1 0x0 DUP1 CALLER PUSH20 0xFFFFFFFFFFFFFFFFFFFFFFFFFFFFFFFFFFFFFFFF AND PUSH20 0xFFFFFFFFFFFFFFFFFFFFFFFFFFFFFFFFFFFFFFFF AND DUP2 MSTORE PUSH1 0x20 ADD SWAP1 DUP2 MSTORE PUSH1 0x20 ADD PUSH1 0x0 KECCAK256 PUSH1 0x0 DUP9 PUSH20 0xFFFFFFFFFFFFFFFFFFFFFFFFFFFFFFFFFFFFFFFF AND PUSH20 0xFFFFFFFFFFFFFFFFFFFFFFFFFFFFFFFFFFFFFFFF AND DUP2 MSTORE PUSH1 0x20 ADD SWAP1 DUP2 MSTORE PUSH1 0x20 ADD PUSH1 0x0 KECCAK256 PUSH1 0x0 DUP3 DUP3 SLOAD SUB SWAP3 POP POP DUP2 SWAP1 SSTORE POP PUSH2 0x221 DUP8 DUP8 DUP8 DUP8 PUSH2 0xAAC JUMP JUMPDEST PUSH2 0x22C DUP3 DUP5 DUP4 PUSH2 0xCBE JUMP JUMPDEST POP POP POP POP POP POP POP JUMP JUMPDEST PUSH1 0x0 PUSH20 0xFFFFFFFFFFFFFFFFFFFFFFFFFFFFFFFFFFFFFFFF AND DUP3 PUSH20 0xFFFFFFFFFFFFFFFFFFFFFFFFFFFFFFFFFFFFFFFF AND EQ PUSH2 0x2FA JUMPI DUP2 PUSH20 0xFFFFFFFFFFFFFFFFFFFFFFFFFFFFFFFFFFFFFFFF AND PUSH4 0x23B872DD CALLER ADDRESS DUP5 PUSH1 0x40 MLOAD DUP5 PUSH4 0xFFFFFFFF AND PUSH1 0xE0 SHL DUP2 MSTORE PUSH1 0x4 ADD PUSH2 0x2A6 SWAP4 SWAP3 SWAP2 SWAP1 PUSH2 0x1633 JUMP JUMPDEST PUSH1 0x20 PUSH1 0x40 MLOAD DUP1 DUP4 SUB DUP2 PUSH1 0x0 DUP8 DUP1 EXTCODESIZE ISZERO DUP1 ISZERO PUSH2 0x2C0 JUMPI PUSH1 0x0 DUP1 REVERT JUMPDEST POP GAS CALL ISZERO DUP1 ISZERO PUSH2 0x2D4 JUMPI RETURNDATASIZE PUSH1 0x0 DUP1 RETURNDATACOPY RETURNDATASIZE PUSH1 0x0 REVERT JUMPDEST POP POP POP POP PUSH1 0x40 MLOAD RETURNDATASIZE PUSH1 0x1F NOT PUSH1 0x1F DUP3 ADD AND DUP3 ADD DUP1 PUSH1 0x40 MSTORE POP DUP2 ADD SWAP1 PUSH2 0x2F8 SWAP2 SWAP1 PUSH2 0x16A2 JUMP JUMPDEST POP JUMPDEST PUSH1 0x0 DUP1 PUSH20 0xFFFFFFFFFFFFFFFFFFFFFFFFFFFFFFFFFFFFFFFF AND DUP4 PUSH20 0xFFFFFFFFFFFFFFFFFFFFFFFFFFFFFFFFFFFFFFFF AND EQ PUSH2 0x335 JUMPI DUP2 PUSH2 0x337 JUMP JUMPDEST CALLVALUE JUMPDEST SWAP1 POP PUSH2 0x3F3 PUSH1 0x40 MLOAD DUP1 PUSH1 0x40 ADD PUSH1 0x40 MSTORE DUP1 PUSH1 0x2 DUP2 MSTORE PUSH1 0x20 ADD PUSH32 0x623A000000000000000000000000000000000000000000000000000000000000 DUP2 MSTORE POP PUSH1 0x0 DUP1 CALLER PUSH20 0xFFFFFFFFFFFFFFFFFFFFFFFFFFFFFFFFFFFFFFFF AND PUSH20 0xFFFFFFFFFFFFFFFFFFFFFFFFFFFFFFFFFFFFFFFF AND DUP2 MSTORE PUSH1 0x20 ADD SWAP1 DUP2 MSTORE PUSH1 0x20 ADD PUSH1 0x0 KECCAK256 PUSH1 0x0 DUP7 PUSH20 0xFFFFFFFFFFFFFFFFFFFFFFFFFFFFFFFFFFFFFFFF AND PUSH20 0xFFFFFFFFFFFFFFFFFFFFFFFFFFFFFFFFFFFFFFFF AND DUP2 MSTORE PUSH1 0x20 ADD SWAP1 DUP2 MSTORE PUSH1 0x20 ADD PUSH1 0x0 KECCAK256 SLOAD PUSH2 0x101B JUMP JUMPDEST DUP1 PUSH1 0x0 DUP1 CALLER PUSH20 0xFFFFFFFFFFFFFFFFFFFFFFFFFFFFFFFFFFFFFFFF AND PUSH20 0xFFFFFFFFFFFFFFFFFFFFFFFFFFFFFFFFFFFFFFFF AND DUP2 MSTORE PUSH1 0x20 ADD SWAP1 DUP2 MSTORE PUSH1 0x20 ADD PUSH1 0x0 KECCAK256 PUSH1 0x0 DUP6 PUSH20 0xFFFFFFFFFFFFFFFFFFFFFFFFFFFFFFFFFFFFFFFF AND PUSH20 0xFFFFFFFFFFFFFFFFFFFFFFFFFFFFFFFFFFFFFFFF AND DUP2 MSTORE PUSH1 0x20 ADD SWAP1 DUP2 MSTORE PUSH1 0x20 ADD PUSH1 0x0 KECCAK256 PUSH1 0x0 DUP3 DUP3 SLOAD ADD SWAP3 POP POP DUP2 SWAP1 SSTORE POP PUSH2 0x536 PUSH1 0x40 MLOAD DUP1 PUSH1 0x40 ADD PUSH1 0x40 MSTORE DUP1 PUSH1 0x2 DUP2 MSTORE PUSH1 0x20 ADD PUSH32 0x613A000000000000000000000000000000000000000000000000000000000000 DUP2 MSTORE POP PUSH1 0x0 DUP1 CALLER PUSH20 0xFFFFFFFFFFFFFFFFFFFFFFFFFFFFFFFFFFFFFFFF AND PUSH20 0xFFFFFFFFFFFFFFFFFFFFFFFFFFFFFFFFFFFFFFFF AND DUP2 MSTORE PUSH1 0x20 ADD SWAP1 DUP2 MSTORE PUSH1 0x20 ADD PUSH1 0x0 KECCAK256 PUSH1 0x0 DUP7 PUSH20 0xFFFFFFFFFFFFFFFFFFFFFFFFFFFFFFFFFFFFFFFF AND PUSH20 0xFFFFFFFFFFFFFFFFFFFFFFFFFFFFFFFFFFFFFFFF AND DUP2 MSTORE PUSH1 0x20 ADD SWAP1 DUP2 MSTORE PUSH1 0x20 ADD PUSH1 0x0 KECCAK256 SLOAD PUSH2 0x101B JUMP JUMPDEST POP POP POP JUMP JUMPDEST PUSH1 0x0 PUSH1 0x20 MSTORE DUP2 PUSH1 0x0 MSTORE PUSH1 0x40 PUSH1 0x0 KECCAK256 PUSH1 0x20 MSTORE DUP1 PUSH1 0x0 MSTORE PUSH1 0x40 PUSH1 0x0 KECCAK256 PUSH1 0x0 SWAP2 POP SWAP2 POP POP SLOAD DUP2 JUMP JUMPDEST PUSH2 0x56A DUP7 DUP6 PUSH2 0x9B1 JUMP JUMPDEST PUSH2 0x574 DUP6 DUP5 PUSH2 0x9B1 JUMP JUMPDEST PUSH2 0x62E PUSH1 0x40 MLOAD DUP1 PUSH1 0x40 ADD PUSH1 0x40 MSTORE DUP1 PUSH1 0x2 DUP2 MSTORE PUSH1 0x20 ADD PUSH32 0x6231000000000000000000000000000000000000000000000000000000000000 DUP2 MSTORE POP PUSH1 0x0 DUP1 CALLER PUSH20 0xFFFFFFFFFFFFFFFFFFFFFFFFFFFFFFFFFFFFFFFF AND PUSH20 0xFFFFFFFFFFFFFFFFFFFFFFFFFFFFFFFFFFFFFFFF AND DUP2 MSTORE PUSH1 0x20 ADD SWAP1 DUP2 MSTORE PUSH1 0x20 ADD PUSH1 0x0 KECCAK256 PUSH1 0x0 DUP10 PUSH20 0xFFFFFFFFFFFFFFFFFFFFFFFFFFFFFFFFFFFFFFFF AND PUSH20 0xFFFFFFFFFFFFFFFFFFFFFFFFFFFFFFFFFFFFFFFF AND DUP2 MSTORE PUSH1 0x20 ADD SWAP1 DUP2 MSTORE PUSH1 0x20 ADD PUSH1 0x0 KECCAK256 SLOAD PUSH2 0x101B JUMP JUMPDEST PUSH2 0x6E8 PUSH1 0x40 MLOAD DUP1 PUSH1 0x40 ADD PUSH1 0x40 MSTORE DUP1 PUSH1 0x2 DUP2 MSTORE PUSH1 0x20 ADD PUSH32 0x6231000000000000000000000000000000000000000000000000000000000000 DUP2 MSTORE POP PUSH1 0x0 DUP1 CALLER PUSH20 0xFFFFFFFFFFFFFFFFFFFFFFFFFFFFFFFFFFFFFFFF AND PUSH20 0xFFFFFFFFFFFFFFFFFFFFFFFFFFFFFFFFFFFFFFFF AND DUP2 MSTORE PUSH1 0x20 ADD SWAP1 DUP2 MSTORE PUSH1 0x20 ADD PUSH1 0x0 KECCAK256 PUSH1 0x0 DUP9 PUSH20 0xFFFFFFFFFFFFFFFFFFFFFFFFFFFFFFFFFFFFFFFF AND PUSH20 0xFFFFFFFFFFFFFFFFFFFFFFFFFFFFFFFFFFFFFFFF AND DUP2 MSTORE PUSH1 0x20 ADD SWAP1 DUP2 MSTORE PUSH1 0x20 ADD PUSH1 0x0 KECCAK256 SLOAD PUSH2 0x101B JUMP JUMPDEST DUP4 PUSH1 0x0 DUP1 CALLER PUSH20 0xFFFFFFFFFFFFFFFFFFFFFFFFFFFFFFFFFFFFFFFF AND PUSH20 0xFFFFFFFFFFFFFFFFFFFFFFFFFFFFFFFFFFFFFFFF AND DUP2 MSTORE PUSH1 0x20 ADD SWAP1 DUP2 MSTORE PUSH1 0x20 ADD PUSH1 0x0 KECCAK256 PUSH1 0x0 DUP9 PUSH20 0xFFFFFFFFFFFFFFFFFFFFFFFFFFFFFFFFFFFFFFFF AND PUSH20 0xFFFFFFFFFFFFFFFFFFFFFFFFFFFFFFFFFFFFFFFF AND DUP2 MSTORE PUSH1 0x20 ADD SWAP1 DUP2 MSTORE PUSH1 0x20 ADD PUSH1 0x0 KECCAK256 PUSH1 0x0 DUP3 DUP3 SLOAD SUB SWAP3 POP POP DUP2 SWAP1 SSTORE POP DUP3 PUSH1 0x0 DUP1 CALLER PUSH20 0xFFFFFFFFFFFFFFFFFFFFFFFFFFFFFFFFFFFFFFFF AND PUSH20 0xFFFFFFFFFFFFFFFFFFFFFFFFFFFFFFFFFFFFFFFF AND DUP2 MSTORE PUSH1 0x20 ADD SWAP1 DUP2 MSTORE PUSH1 0x20 ADD PUSH1 0x0 KECCAK256 PUSH1 0x0 DUP8 PUSH20 0xFFFFFFFFFFFFFFFFFFFFFFFFFFFFFFFFFFFFFFFF AND PUSH20 0xFFFFFFFFFFFFFFFFFFFFFFFFFFFFFFFFFFFFFFFF AND DUP2 MSTORE PUSH1 0x20 ADD SWAP1 DUP2 MSTORE PUSH1 0x20 ADD PUSH1 0x0 KECCAK256 PUSH1 0x0 DUP3 DUP3 SLOAD SUB SWAP3 POP POP DUP2 SWAP1 SSTORE POP PUSH2 0x8B4 PUSH1 0x40 MLOAD DUP1 PUSH1 0x40 ADD PUSH1 0x40 MSTORE DUP1 PUSH1 0x2 DUP2 MSTORE PUSH1 0x20 ADD PUSH32 0x6131000000000000000000000000000000000000000000000000000000000000 DUP2 MSTORE POP PUSH1 0x0 DUP1 CALLER PUSH20 0xFFFFFFFFFFFFFFFFFFFFFFFFFFFFFFFFFFFFFFFF AND PUSH20 0xFFFFFFFFFFFFFFFFFFFFFFFFFFFFFFFFFFFFFFFF AND DUP2 MSTORE PUSH1 0x20 ADD SWAP1 DUP2 MSTORE PUSH1 0x20 ADD PUSH1 0x0 KECCAK256 PUSH1 0x0 DUP10 PUSH20 0xFFFFFFFFFFFFFFFFFFFFFFFFFFFFFFFFFFFFFFFF AND PUSH20 0xFFFFFFFFFFFFFFFFFFFFFFFFFFFFFFFFFFFFFFFF AND DUP2 MSTORE PUSH1 0x20 ADD SWAP1 DUP2 MSTORE PUSH1 0x20 ADD PUSH1 0x0 KECCAK256 SLOAD PUSH2 0x101B JUMP JUMPDEST PUSH2 0x96E PUSH1 0x40 MLOAD DUP1 PUSH1 0x40 ADD PUSH1 0x40 MSTORE DUP1 PUSH1 0x2 DUP2 MSTORE PUSH1 0x20 ADD PUSH32 0x6132000000000000000000000000000000000000000000000000000000000000 DUP2 MSTORE POP PUSH1 0x0 DUP1 CALLER PUSH20 0xFFFFFFFFFFFFFFFFFFFFFFFFFFFFFFFFFFFFFFFF AND PUSH20 0xFFFFFFFFFFFFFFFFFFFFFFFFFFFFFFFFFFFFFFFF AND DUP2 MSTORE PUSH1 0x20 ADD SWAP1 DUP2 MSTORE PUSH1 0x20 ADD PUSH1 0x0 KECCAK256 PUSH1 0x0 DUP9 PUSH20 0xFFFFFFFFFFFFFFFFFFFFFFFFFFFFFFFFFFFFFFFF AND PUSH20 0xFFFFFFFFFFFFFFFFFFFFFFFFFFFFFFFFFFFFFFFF AND DUP2 MSTORE PUSH1 0x20 ADD SWAP1 DUP2 MSTORE PUSH1 0x20 ADD PUSH1 0x0 KECCAK256 SLOAD PUSH2 0x101B JUMP JUMPDEST PUSH2 0x97A DUP7 DUP7 DUP7 DUP7 PUSH2 0xAAC JUMP JUMPDEST PUSH1 0x0 PUSH2 0x99B PUSH20 0xC0AEE478E3658E2610C5F7A4A2E1777CE9E4F2AC DUP9 DUP9 PUSH2 0x10B7 JUMP JUMPDEST SWAP1 POP PUSH2 0x9A8 DUP2 DUP5 DUP5 PUSH2 0xCBE JUMP JUMPDEST POP POP POP POP POP POP POP JUMP JUMPDEST DUP1 PUSH1 0x0 DUP1 CALLER PUSH20 0xFFFFFFFFFFFFFFFFFFFFFFFFFFFFFFFFFFFFFFFF AND PUSH20 0xFFFFFFFFFFFFFFFFFFFFFFFFFFFFFFFFFFFFFFFF AND DUP2 MSTORE PUSH1 0x20 ADD SWAP1 DUP2 MSTORE PUSH1 0x20 ADD PUSH1 0x0 KECCAK256 PUSH1 0x0 DUP5 PUSH20 0xFFFFFFFFFFFFFFFFFFFFFFFFFFFFFFFFFFFFFFFF AND PUSH20 0xFFFFFFFFFFFFFFFFFFFFFFFFFFFFFFFFFFFFFFFF AND DUP2 MSTORE PUSH1 0x20 ADD SWAP1 DUP2 MSTORE PUSH1 0x20 ADD PUSH1 0x0 KECCAK256 SLOAD LT ISZERO PUSH1 0x40 MLOAD DUP1 PUSH1 0x40 ADD PUSH1 0x40 MSTORE DUP1 PUSH1 0x15 DUP2 MSTORE PUSH1 0x20 ADD PUSH32 0x496E73756666696369656E742062616C616E63652E0000000000000000000000 DUP2 MSTORE POP SWAP1 PUSH2 0xAA7 JUMPI PUSH1 0x40 MLOAD PUSH32 0x8C379A000000000000000000000000000000000000000000000000000000000 DUP2 MSTORE PUSH1 0x4 ADD PUSH2 0xA9E SWAP2 SWAP1 PUSH2 0x1768 JUMP JUMPDEST PUSH1 0x40 MLOAD DUP1 SWAP2 SUB SWAP1 REVERT JUMPDEST POP POP POP JUMP JUMPDEST DUP4 PUSH20 0xFFFFFFFFFFFFFFFFFFFFFFFFFFFFFFFFFFFFFFFF AND PUSH4 0x95EA7B3 PUSH20 0xD9E1CE17F2641F24AE83637AB66A2CCA9C378B9F DUP5 PUSH1 0x40 MLOAD DUP4 PUSH4 0xFFFFFFFF AND PUSH1 0xE0 SHL DUP2 MSTORE PUSH1 0x4 ADD PUSH2 0xAFB SWAP3 SWAP2 SWAP1 PUSH2 0x178A JUMP JUMPDEST PUSH1 0x20 PUSH1 0x40 MLOAD DUP1 DUP4 SUB DUP2 PUSH1 0x0 DUP8 DUP1 EXTCODESIZE ISZERO DUP1 ISZERO PUSH2 0xB15 JUMPI PUSH1 0x0 DUP1 REVERT JUMPDEST POP GAS CALL ISZERO DUP1 ISZERO PUSH2 0xB29 JUMPI RETURNDATASIZE PUSH1 0x0 DUP1 RETURNDATACOPY RETURNDATASIZE PUSH1 0x0 REVERT JUMPDEST POP POP POP POP PUSH1 0x40 MLOAD RETURNDATASIZE PUSH1 0x1F NOT PUSH1 0x1F DUP3 ADD AND DUP3 ADD DUP1 PUSH1 0x40 MSTORE POP DUP2 ADD SWAP1 PUSH2 0xB4D SWAP2 SWAP1 PUSH2 0x16A2 JUMP JUMPDEST POP DUP3 PUSH20 0xFFFFFFFFFFFFFFFFFFFFFFFFFFFFFFFFFFFFFFFF AND PUSH4 0x95EA7B3 PUSH20 0xD9E1CE17F2641F24AE83637AB66A2CCA9C378B9F DUP4 PUSH1 0x40 MLOAD DUP4 PUSH4 0xFFFFFFFF AND PUSH1 0xE0 SHL DUP2 MSTORE PUSH1 0x4 ADD PUSH2 0xB9D SWAP3 SWAP2 SWAP1 PUSH2 0x178A JUMP JUMPDEST PUSH1 0x20 PUSH1 0x40 MLOAD DUP1 DUP4 SUB DUP2 PUSH1 0x0 DUP8 DUP1 EXTCODESIZE ISZERO DUP1 ISZERO PUSH2 0xBB7 JUMPI PUSH1 0x0 DUP1 REVERT JUMPDEST POP GAS CALL ISZERO DUP1 ISZERO PUSH2 0xBCB JUMPI RETURNDATASIZE PUSH1 0x0 DUP1 RETURNDATACOPY RETURNDATASIZE PUSH1 0x0 REVERT JUMPDEST POP POP POP POP PUSH1 0x40 MLOAD RETURNDATASIZE PUSH1 0x1F NOT PUSH1 0x1F DUP3 ADD AND DUP3 ADD DUP1 PUSH1 0x40 MSTORE POP DUP2 ADD SWAP1 PUSH2 0xBEF SWAP2 SWAP1 PUSH2 0x16A2 JUMP JUMPDEST POP PUSH20 0xD9E1CE17F2641F24AE83637AB66A2CCA9C378B9F PUSH20 0xFFFFFFFFFFFFFFFFFFFFFFFFFFFFFFFFFFFFFFFF AND PUSH4 0xE8E33700 DUP6 DUP6 DUP6 DUP6 PUSH1 0xA DUP9 PUSH2 0xC31 SWAP2 SWAP1 PUSH2 0x17E2 JUMP JUMPDEST PUSH1 0x64 DUP9 PUSH2 0xC3E SWAP2 SWAP1 PUSH2 0x17E2 JUMP JUMPDEST ADDRESS TIMESTAMP PUSH1 0x40 MLOAD DUP10 PUSH4 0xFFFFFFFF AND PUSH1 0xE0 SHL DUP2 MSTORE PUSH1 0x4 ADD PUSH2 0xC63 SWAP9 SWAP8 SWAP7 SWAP6 SWAP5 SWAP4 SWAP3 SWAP2 SWAP1 PUSH2 0x1813 JUMP JUMPDEST PUSH1 0x60 PUSH1 0x40 MLOAD DUP1 DUP4 SUB DUP2 PUSH1 0x0 DUP8 DUP1 EXTCODESIZE ISZERO DUP1 ISZERO PUSH2 0xC7D JUMPI PUSH1 0x0 DUP1 REVERT JUMPDEST POP GAS CALL ISZERO DUP1 ISZERO PUSH2 0xC91 JUMPI RETURNDATASIZE PUSH1 0x0 DUP1 RETURNDATACOPY RETURNDATASIZE PUSH1 0x0 REVERT JUMPDEST POP POP POP POP PUSH1 0x40 MLOAD RETURNDATASIZE PUSH1 0x1F NOT PUSH1 0x1F DUP3 ADD AND DUP3 ADD DUP1 PUSH1 0x40 MSTORE POP DUP2 ADD SWAP1 PUSH2 0xCB5 SWAP2 SWAP1 PUSH2 0x18A6 JUMP JUMPDEST POP POP POP POP POP POP POP JUMP JUMPDEST PUSH2 0xCC7 DUP4 PUSH2 0x1129 JUMP JUMPDEST PUSH1 0x0 DUP4 PUSH20 0xFFFFFFFFFFFFFFFFFFFFFFFFFFFFFFFFFFFFFFFF AND PUSH4 0x70A08231 ADDRESS PUSH1 0x40 MLOAD DUP3 PUSH4 0xFFFFFFFF AND PUSH1 0xE0 SHL DUP2 MSTORE PUSH1 0x4 ADD PUSH2 0xD02 SWAP2 SWAP1 PUSH2 0x18F9 JUMP JUMPDEST PUSH1 0x20 PUSH1 0x40 MLOAD DUP1 DUP4 SUB DUP2 DUP7 DUP1 EXTCODESIZE ISZERO DUP1 ISZERO PUSH2 0xD1A JUMPI PUSH1 0x0 DUP1 REVERT JUMPDEST POP GAS STATICCALL ISZERO DUP1 ISZERO PUSH2 0xD2E JUMPI RETURNDATASIZE PUSH1 0x0 DUP1 RETURNDATACOPY RETURNDATASIZE PUSH1 0x0 REVERT JUMPDEST POP POP POP POP PUSH1 0x40 MLOAD RETURNDATASIZE PUSH1 0x1F NOT PUSH1 0x1F DUP3 ADD AND DUP3 ADD DUP1 PUSH1 0x40 MSTORE POP DUP2 ADD SWAP1 PUSH2 0xD52 SWAP2 SWAP1 PUSH2 0x1914 JUMP JUMPDEST SWAP1 POP PUSH2 0xD92 PUSH1 0x40 MLOAD DUP1 PUSH1 0x40 ADD PUSH1 0x40 MSTORE DUP1 PUSH1 0x5 DUP2 MSTORE PUSH1 0x20 ADD PUSH32 0x7061736564000000000000000000000000000000000000000000000000000000 DUP2 MSTORE POP PUSH2 0x11C2 JUMP JUMPDEST PUSH1 0x0 PUSH20 0xFFFFFFFFFFFFFFFFFFFFFFFFFFFFFFFFFFFFFFFF AND DUP3 PUSH20 0xFFFFFFFFFFFFFFFFFFFFFFFFFFFFFFFFFFFFFFFF AND EQ PUSH2 0xEF1 JUMPI DUP4 PUSH20 0xFFFFFFFFFFFFFFFFFFFFFFFFFFFFFFFFFFFFFFFF AND PUSH4 0x95EA7B3 PUSH20 0xEF0881EC094552B2E128CF945EF17A6752B4EC5D DUP4 PUSH1 0x40 MLOAD DUP4 PUSH4 0xFFFFFFFF AND PUSH1 0xE0 SHL DUP2 MSTORE PUSH1 0x4 ADD PUSH2 0xE15 SWAP3 SWAP2 SWAP1 PUSH2 0x178A JUMP JUMPDEST PUSH1 0x20 PUSH1 0x40 MLOAD DUP1 DUP4 SUB DUP2 PUSH1 0x0 DUP8 DUP1 EXTCODESIZE ISZERO DUP1 ISZERO PUSH2 0xE2F JUMPI PUSH1 0x0 DUP1 REVERT JUMPDEST POP GAS CALL ISZERO DUP1 ISZERO PUSH2 0xE43 JUMPI RETURNDATASIZE PUSH1 0x0 DUP1 RETURNDATACOPY RETURNDATASIZE PUSH1 0x0 REVERT JUMPDEST POP POP POP POP PUSH1 0x40 MLOAD RETURNDATASIZE PUSH1 0x1F NOT PUSH1 0x1F DUP3 ADD AND DUP3 ADD DUP1 PUSH1 0x40 MSTORE POP DUP2 ADD SWAP1 PUSH2 0xE67 SWAP2 SWAP1 PUSH2 0x16A2 JUMP JUMPDEST POP PUSH20 0xEF0881EC094552B2E128CF945EF17A6752B4EC5D PUSH20 0xFFFFFFFFFFFFFFFFFFFFFFFFFFFFFFFFFFFFFFFF AND PUSH4 0x8DBDBE6D DUP5 DUP4 DUP6 PUSH1 0x40 MLOAD DUP5 PUSH4 0xFFFFFFFF AND PUSH1 0xE0 SHL DUP2 MSTORE PUSH1 0x4 ADD PUSH2 0xEB9 SWAP4 SWAP3 SWAP2 SWAP1 PUSH2 0x1941 JUMP JUMPDEST PUSH1 0x0 PUSH1 0x40 MLOAD DUP1 DUP4 SUB DUP2 PUSH1 0x0 DUP8 DUP1 EXTCODESIZE ISZERO DUP1 ISZERO PUSH2 0xED3 JUMPI PUSH1 0x0 DUP1 REVERT JUMPDEST POP GAS CALL ISZERO DUP1 ISZERO PUSH2 0xEE7 JUMPI RETURNDATASIZE PUSH1 0x0 DUP1 RETURNDATACOPY RETURNDATASIZE PUSH1 0x0 REVERT JUMPDEST POP POP POP POP POP PUSH2 0x1016 JUMP JUMPDEST DUP4 PUSH20 0xFFFFFFFFFFFFFFFFFFFFFFFFFFFFFFFFFFFFFFFF AND PUSH4 0x95EA7B3 PUSH20 0xC2EDAD668740F1AA35E4D8F227FB8E17DCA888CD DUP4 PUSH1 0x40 MLOAD DUP4 PUSH4 0xFFFFFFFF AND PUSH1 0xE0 SHL DUP2 MSTORE PUSH1 0x4 ADD PUSH2 0xF40 SWAP3 SWAP2 SWAP1 PUSH2 0x178A JUMP JUMPDEST PUSH1 0x20 PUSH1 0x40 MLOAD DUP1 DUP4 SUB DUP2 PUSH1 0x0 DUP8 DUP1 EXTCODESIZE ISZERO DUP1 ISZERO PUSH2 0xF5A JUMPI PUSH1 0x0 DUP1 REVERT JUMPDEST POP GAS CALL ISZERO DUP1 ISZERO PUSH2 0xF6E JUMPI RETURNDATASIZE PUSH1 0x0 DUP1 RETURNDATACOPY RETURNDATASIZE PUSH1 0x0 REVERT JUMPDEST POP POP POP POP PUSH1 0x40 MLOAD RETURNDATASIZE PUSH1 0x1F NOT PUSH1 0x1F DUP3 ADD AND DUP3 ADD DUP1 PUSH1 0x40 MSTORE POP DUP2 ADD SWAP1 PUSH2 0xF92 SWAP2 SWAP1 PUSH2 0x16A2 JUMP JUMPDEST POP PUSH20 0xC2EDAD668740F1AA35E4D8F227FB8E17DCA888CD PUSH20 0xFFFFFFFFFFFFFFFFFFFFFFFFFFFFFFFFFFFFFFFF AND PUSH4 0xE2BBB158 DUP5 DUP4 PUSH1 0x40 MLOAD DUP4 PUSH4 0xFFFFFFFF AND PUSH1 0xE0 SHL DUP2 MSTORE PUSH1 0x4 ADD PUSH2 0xFE2 SWAP3 SWAP2 SWAP1 PUSH2 0x1978 JUMP JUMPDEST PUSH1 0x0 PUSH1 0x40 MLOAD DUP1 DUP4 SUB DUP2 PUSH1 0x0 DUP8 DUP1 EXTCODESIZE ISZERO DUP1 ISZERO PUSH2 0xFFC JUMPI PUSH1 0x0 DUP1 REVERT JUMPDEST POP GAS CALL ISZERO DUP1 ISZERO PUSH2 0x1010 JUMPI RETURNDATASIZE PUSH1 0x0 DUP1 RETURNDATACOPY RETURNDATASIZE PUSH1 0x0 REVERT JUMPDEST POP POP POP POP POP JUMPDEST POP POP POP JUMP JUMPDEST PUSH2 0x10B3 DUP3 DUP3 PUSH1 0x40 MLOAD PUSH1 0x24 ADD PUSH2 0x1031 SWAP3 SWAP2 SWAP1 PUSH2 0x19A1 JUMP JUMPDEST PUSH1 0x40 MLOAD PUSH1 0x20 DUP2 DUP4 SUB SUB DUP2 MSTORE SWAP1 PUSH1 0x40 MSTORE PUSH32 0xB60E72CC00000000000000000000000000000000000000000000000000000000 PUSH28 0xFFFFFFFFFFFFFFFFFFFFFFFFFFFFFFFFFFFFFFFFFFFFFFFFFFFFFFFF NOT AND PUSH1 0x20 DUP3 ADD DUP1 MLOAD PUSH28 0xFFFFFFFFFFFFFFFFFFFFFFFFFFFFFFFFFFFFFFFFFFFFFFFFFFFFFFFF DUP4 DUP2 DUP4 AND OR DUP4 MSTORE POP POP POP POP PUSH2 0x125B JUMP JUMPDEST POP POP JUMP JUMPDEST PUSH1 0x0 DUP1 PUSH1 0x0 PUSH2 0x10C6 DUP6 DUP6 PUSH2 0x1284 JUMP JUMPDEST SWAP2 POP SWAP2 POP DUP6 DUP3 DUP3 PUSH1 0x40 MLOAD PUSH1 0x20 ADD PUSH2 0x10DE SWAP3 SWAP2 SWAP1 PUSH2 0x1A19 JUMP JUMPDEST PUSH1 0x40 MLOAD PUSH1 0x20 DUP2 DUP4 SUB SUB DUP2 MSTORE SWAP1 PUSH1 0x40 MSTORE DUP1 MLOAD SWAP1 PUSH1 0x20 ADD KECCAK256 PUSH1 0x40 MLOAD PUSH1 0x20 ADD PUSH2 0x1105 SWAP3 SWAP2 SWAP1 PUSH2 0x1B13 JUMP JUMPDEST PUSH1 0x40 MLOAD PUSH1 0x20 DUP2 DUP4 SUB SUB DUP2 MSTORE SWAP1 PUSH1 0x40 MSTORE DUP1 MLOAD SWAP1 PUSH1 0x20 ADD KECCAK256 PUSH1 0x0 SHR SWAP3 POP POP POP SWAP4 SWAP3 POP POP POP JUMP JUMPDEST PUSH2 0x11BF DUP2 PUSH1 0x40 MLOAD PUSH1 0x24 ADD PUSH2 0x113D SWAP2 SWAP1 PUSH2 0x18F9 JUMP JUMPDEST PUSH1 0x40 MLOAD PUSH1 0x20 DUP2 DUP4 SUB SUB DUP2 MSTORE SWAP1 PUSH1 0x40 MSTORE PUSH32 0x2C2ECBC200000000000000000000000000000000000000000000000000000000 PUSH28 0xFFFFFFFFFFFFFFFFFFFFFFFFFFFFFFFFFFFFFFFFFFFFFFFFFFFFFFFF NOT AND PUSH1 0x20 DUP3 ADD DUP1 MLOAD PUSH28 0xFFFFFFFFFFFFFFFFFFFFFFFFFFFFFFFFFFFFFFFFFFFFFFFFFFFFFFFF DUP4 DUP2 DUP4 AND OR DUP4 MSTORE POP POP POP POP PUSH2 0x125B JUMP JUMPDEST POP JUMP JUMPDEST PUSH2 0x1258 DUP2 PUSH1 0x40 MLOAD PUSH1 0x24 ADD PUSH2 0x11D6 SWAP2 SWAP1 PUSH2 0x1768 JUMP JUMPDEST PUSH1 0x40 MLOAD PUSH1 0x20 DUP2 DUP4 SUB SUB DUP2 MSTORE SWAP1 PUSH1 0x40 MSTORE PUSH32 0x41304FAC00000000000000000000000000000000000000000000000000000000 PUSH28 0xFFFFFFFFFFFFFFFFFFFFFFFFFFFFFFFFFFFFFFFFFFFFFFFFFFFFFFFF NOT AND PUSH1 0x20 DUP3 ADD DUP1 MLOAD PUSH28 0xFFFFFFFFFFFFFFFFFFFFFFFFFFFFFFFFFFFFFFFFFFFFFFFFFFFFFFFF DUP4 DUP2 DUP4 AND OR DUP4 MSTORE POP POP POP POP PUSH2 0x125B JUMP JUMPDEST POP JUMP JUMPDEST PUSH1 0x0 DUP2 MLOAD SWAP1 POP PUSH1 0x0 PUSH11 0x636F6E736F6C652E6C6F67 SWAP1 POP PUSH1 0x20 DUP4 ADD PUSH1 0x0 DUP1 DUP5 DUP4 DUP6 GAS STATICCALL POP POP POP POP POP JUMP JUMPDEST PUSH1 0x0 DUP1 DUP3 PUSH20 0xFFFFFFFFFFFFFFFFFFFFFFFFFFFFFFFFFFFFFFFF AND DUP5 PUSH20 0xFFFFFFFFFFFFFFFFFFFFFFFFFFFFFFFFFFFFFFFF AND EQ ISZERO PUSH2 0x12F6 JUMPI PUSH1 0x40 MLOAD PUSH32 0x8C379A000000000000000000000000000000000000000000000000000000000 DUP2 MSTORE PUSH1 0x4 ADD PUSH2 0x12ED SWAP1 PUSH2 0x1BC7 JUMP JUMPDEST PUSH1 0x40 MLOAD DUP1 SWAP2 SUB SWAP1 REVERT JUMPDEST DUP3 PUSH20 0xFFFFFFFFFFFFFFFFFFFFFFFFFFFFFFFFFFFFFFFF AND DUP5 PUSH20 0xFFFFFFFFFFFFFFFFFFFFFFFFFFFFFFFFFFFFFFFF AND LT PUSH2 0x1330 JUMPI DUP3 DUP5 PUSH2 0x1333 JUMP JUMPDEST DUP4 DUP4 JUMPDEST DUP1 SWAP3 POP DUP2 SWAP4 POP POP POP PUSH1 0x0 PUSH20 0xFFFFFFFFFFFFFFFFFFFFFFFFFFFFFFFFFFFFFFFF AND DUP3 PUSH20 0xFFFFFFFFFFFFFFFFFFFFFFFFFFFFFFFFFFFFFFFF AND EQ ISZERO PUSH2 0x13AB JUMPI PUSH1 0x40 MLOAD PUSH32 0x8C379A000000000000000000000000000000000000000000000000000000000 DUP2 MSTORE PUSH1 0x4 ADD PUSH2 0x13A2 SWAP1 PUSH2 0x1C33 JUMP JUMPDEST PUSH1 0x40 MLOAD DUP1 SWAP2 SUB SWAP1 REVERT JUMPDEST SWAP3 POP SWAP3 SWAP1 POP JUMP JUMPDEST PUSH1 0x0 DUP1 REVERT JUMPDEST PUSH1 0x0 PUSH20 0xFFFFFFFFFFFFFFFFFFFFFFFFFFFFFFFFFFFFFFFF DUP3 AND SWAP1 POP SWAP2 SWAP1 POP JUMP JUMPDEST PUSH1 0x0 PUSH2 0x13E2 DUP3 PUSH2 0x13B7 JUMP JUMPDEST SWAP1 POP SWAP2 SWAP1 POP JUMP JUMPDEST PUSH2 0x13F2 DUP2 PUSH2 0x13D7 JUMP JUMPDEST DUP2 EQ PUSH2 0x13FD JUMPI PUSH1 0x0 DUP1 REVERT JUMPDEST POP JUMP JUMPDEST PUSH1 0x0 DUP2 CALLDATALOAD SWAP1 POP PUSH2 0x140F DUP2 PUSH2 0x13E9 JUMP JUMPDEST SWAP3 SWAP2 POP POP JUMP JUMPDEST PUSH1 0x0 DUP2 SWAP1 POP SWAP2 SWAP1 POP JUMP JUMPDEST PUSH2 0x1428 DUP2 PUSH2 0x1415 JUMP JUMPDEST DUP2 EQ PUSH2 0x1433 JUMPI PUSH1 0x0 DUP1 REVERT JUMPDEST POP JUMP JUMPDEST PUSH1 0x0 DUP2 CALLDATALOAD SWAP1 POP PUSH2 0x1445 DUP2 PUSH2 0x141F JUMP JUMPDEST SWAP3 SWAP2 POP POP JUMP JUMPDEST PUSH1 0x0 DUP1 PUSH1 0x0 DUP1 PUSH1 0x0 DUP1 PUSH1 0x0 PUSH1 0xE0 DUP9 DUP11 SUB SLT ISZERO PUSH2 0x146A JUMPI PUSH2 0x1469 PUSH2 0x13B2 JUMP JUMPDEST JUMPDEST PUSH1 0x0 PUSH2 0x1478 DUP11 DUP3 DUP12 ADD PUSH2 0x1400 JUMP JUMPDEST SWAP8 POP POP PUSH1 0x20 PUSH2 0x1489 DUP11 DUP3 DUP12 ADD PUSH2 0x1400 JUMP JUMPDEST SWAP7 POP POP PUSH1 0x40 PUSH2 0x149A DUP11 DUP3 DUP12 ADD PUSH2 0x1436 JUMP JUMPDEST SWAP6 POP POP PUSH1 0x60 PUSH2 0x14AB DUP11 DUP3 DUP12 ADD PUSH2 0x1436 JUMP JUMPDEST SWAP5 POP POP PUSH1 0x80 PUSH2 0x14BC DUP11 DUP3 DUP12 ADD PUSH2 0x1436 JUMP JUMPDEST SWAP4 POP POP PUSH1 0xA0 PUSH2 0x14CD DUP11 DUP3 DUP12 ADD PUSH2 0x1400 JUMP JUMPDEST SWAP3 POP POP PUSH1 0xC0 PUSH2 0x14DE DUP11 DUP3 DUP12 ADD PUSH2 0x1400 JUMP JUMPDEST SWAP2 POP POP SWAP3 SWAP6 SWAP9 SWAP2 SWAP5 SWAP8 POP SWAP3 SWAP6 POP JUMP JUMPDEST PUSH1 0x0 DUP1 PUSH1 0x40 DUP4 DUP6 SUB SLT ISZERO PUSH2 0x1504 JUMPI PUSH2 0x1503 PUSH2 0x13B2 JUMP JUMPDEST JUMPDEST PUSH1 0x0 PUSH2 0x1512 DUP6 DUP3 DUP7 ADD PUSH2 0x1400 JUMP JUMPDEST SWAP3 POP POP PUSH1 0x20 PUSH2 0x1523 DUP6 DUP3 DUP7 ADD PUSH2 0x1436 JUMP JUMPDEST SWAP2 POP POP SWAP3 POP SWAP3 SWAP1 POP JUMP JUMPDEST PUSH1 0x0 DUP1 PUSH1 0x40 DUP4 DUP6 SUB SLT ISZERO PUSH2 0x1544 JUMPI PUSH2 0x1543 PUSH2 0x13B2 JUMP JUMPDEST JUMPDEST PUSH1 0x0 PUSH2 0x1552 DUP6 DUP3 DUP7 ADD PUSH2 0x1400 JUMP JUMPDEST SWAP3 POP POP PUSH1 0x20 PUSH2 0x1563 DUP6 DUP3 DUP7 ADD PUSH2 0x1400 JUMP JUMPDEST SWAP2 POP POP SWAP3 POP SWAP3 SWAP1 POP JUMP JUMPDEST PUSH2 0x1576 DUP2 PUSH2 0x1415 JUMP JUMPDEST DUP3 MSTORE POP POP JUMP JUMPDEST PUSH1 0x0 PUSH1 0x20 DUP3 ADD SWAP1 POP PUSH2 0x1591 PUSH1 0x0 DUP4 ADD DUP5 PUSH2 0x156D JUMP JUMPDEST SWAP3 SWAP2 POP POP JUMP JUMPDEST PUSH1 0x0 DUP1 PUSH1 0x0 DUP1 PUSH1 0x0 DUP1 PUSH1 0xC0 DUP8 DUP10 SUB SLT ISZERO PUSH2 0x15B4 JUMPI PUSH2 0x15B3 PUSH2 0x13B2 JUMP JUMPDEST JUMPDEST PUSH1 0x0 PUSH2 0x15C2 DUP10 DUP3 DUP11 ADD PUSH2 0x1400 JUMP JUMPDEST SWAP7 POP POP PUSH1 0x20 PUSH2 0x15D3 DUP10 DUP3 DUP11 ADD PUSH2 0x1400 JUMP JUMPDEST SWAP6 POP POP PUSH1 0x40 PUSH2 0x15E4 DUP10 DUP3 DUP11 ADD PUSH2 0x1436 JUMP JUMPDEST SWAP5 POP POP PUSH1 0x60 PUSH2 0x15F5 DUP10 DUP3 DUP11 ADD PUSH2 0x1436 JUMP JUMPDEST SWAP4 POP POP PUSH1 0x80 PUSH2 0x1606 DUP10 DUP3 DUP11 ADD PUSH2 0x1436 JUMP JUMPDEST SWAP3 POP POP PUSH1 0xA0 PUSH2 0x1617 DUP10 DUP3 DUP11 ADD PUSH2 0x1400 JUMP JUMPDEST SWAP2 POP POP SWAP3 SWAP6 POP SWAP3 SWAP6 POP SWAP3 SWAP6 JUMP JUMPDEST PUSH2 0x162D DUP2 PUSH2 0x13D7 JUMP JUMPDEST DUP3 MSTORE POP POP JUMP JUMPDEST PUSH1 0x0 PUSH1 0x60 DUP3 ADD SWAP1 POP PUSH2 0x1648 PUSH1 0x0 DUP4 ADD DUP7 PUSH2 0x1624 JUMP JUMPDEST PUSH2 0x1655 PUSH1 0x20 DUP4 ADD DUP6 PUSH2 0x1624 JUMP JUMPDEST PUSH2 0x1662 PUSH1 0x40 DUP4 ADD DUP5 PUSH2 0x156D JUMP JUMPDEST SWAP5 SWAP4 POP POP POP POP JUMP JUMPDEST PUSH1 0x0 DUP2 ISZERO ISZERO SWAP1 POP SWAP2 SWAP1 POP JUMP JUMPDEST PUSH2 0x167F DUP2 PUSH2 0x166A JUMP JUMPDEST DUP2 EQ PUSH2 0x168A JUMPI PUSH1 0x0 DUP1 REVERT JUMPDEST POP JUMP JUMPDEST PUSH1 0x0 DUP2 MLOAD SWAP1 POP PUSH2 0x169C DUP2 PUSH2 0x1676 JUMP JUMPDEST SWAP3 SWAP2 POP POP JUMP JUMPDEST PUSH1 0x0 PUSH1 0x20 DUP3 DUP5 SUB SLT ISZERO PUSH2 0x16B8 JUMPI PUSH2 0x16B7 PUSH2 0x13B2 JUMP JUMPDEST JUMPDEST PUSH1 0x0 PUSH2 0x16C6 DUP5 DUP3 DUP6 ADD PUSH2 0x168D JUMP JUMPDEST SWAP2 POP POP SWAP3 SWAP2 POP POP JUMP JUMPDEST PUSH1 0x0 DUP2 MLOAD SWAP1 POP SWAP2 SWAP1 POP JUMP JUMPDEST PUSH1 0x0 DUP3 DUP3 MSTORE PUSH1 0x20 DUP3 ADD SWAP1 POP SWAP3 SWAP2 POP POP JUMP JUMPDEST PUSH1 0x0 JUMPDEST DUP4 DUP2 LT ISZERO PUSH2 0x1709 JUMPI DUP1 DUP3 ADD MLOAD DUP2 DUP5 ADD MSTORE PUSH1 0x20 DUP2 ADD SWAP1 POP PUSH2 0x16EE JUMP JUMPDEST DUP4 DUP2 GT ISZERO PUSH2 0x1718 JUMPI PUSH1 0x0 DUP5 DUP5 ADD MSTORE JUMPDEST POP POP POP POP JUMP JUMPDEST PUSH1 0x0 PUSH1 0x1F NOT PUSH1 0x1F DUP4 ADD AND SWAP1 POP SWAP2 SWAP1 POP JUMP JUMPDEST PUSH1 0x0 PUSH2 0x173A DUP3 PUSH2 0x16CF JUMP JUMPDEST PUSH2 0x1744 DUP2 DUP6 PUSH2 0x16DA JUMP JUMPDEST SWAP4 POP PUSH2 0x1754 DUP2 DUP6 PUSH1 0x20 DUP7 ADD PUSH2 0x16EB JUMP JUMPDEST PUSH2 0x175D DUP2 PUSH2 0x171E JUMP JUMPDEST DUP5 ADD SWAP2 POP POP SWAP3 SWAP2 POP POP JUMP JUMPDEST PUSH1 0x0 PUSH1 0x20 DUP3 ADD SWAP1 POP DUP2 DUP2 SUB PUSH1 0x0 DUP4 ADD MSTORE PUSH2 0x1782 DUP2 DUP5 PUSH2 0x172F JUMP JUMPDEST SWAP1 POP SWAP3 SWAP2 POP POP JUMP JUMPDEST PUSH1 0x0 PUSH1 0x40 DUP3 ADD SWAP1 POP PUSH2 0x179F PUSH1 0x0 DUP4 ADD DUP6 PUSH2 0x1624 JUMP JUMPDEST PUSH2 0x17AC PUSH1 0x20 DUP4 ADD DUP5 PUSH2 0x156D JUMP JUMPDEST SWAP4 SWAP3 POP POP POP JUMP JUMPDEST PUSH32 0x4E487B7100000000000000000000000000000000000000000000000000000000 PUSH1 0x0 MSTORE PUSH1 0x12 PUSH1 0x4 MSTORE PUSH1 0x24 PUSH1 0x0 REVERT JUMPDEST PUSH1 0x0 PUSH2 0x17ED DUP3 PUSH2 0x1415 JUMP JUMPDEST SWAP2 POP PUSH2 0x17F8 DUP4 PUSH2 0x1415 JUMP JUMPDEST SWAP3 POP DUP3 PUSH2 0x1808 JUMPI PUSH2 0x1807 PUSH2 0x17B3 JUMP JUMPDEST JUMPDEST DUP3 DUP3 DIV SWAP1 POP SWAP3 SWAP2 POP POP JUMP JUMPDEST PUSH1 0x0 PUSH2 0x100 DUP3 ADD SWAP1 POP PUSH2 0x1829 PUSH1 0x0 DUP4 ADD DUP12 PUSH2 0x1624 JUMP JUMPDEST PUSH2 0x1836 PUSH1 0x20 DUP4 ADD DUP11 PUSH2 0x1624 JUMP JUMPDEST PUSH2 0x1843 PUSH1 0x40 DUP4 ADD DUP10 PUSH2 0x156D JUMP JUMPDEST PUSH2 0x1850 PUSH1 0x60 DUP4 ADD DUP9 PUSH2 0x156D JUMP JUMPDEST PUSH2 0x185D PUSH1 0x80 DUP4 ADD DUP8 PUSH2 0x156D JUMP JUMPDEST PUSH2 0x186A PUSH1 0xA0 DUP4 ADD DUP7 PUSH2 0x156D JUMP JUMPDEST PUSH2 0x1877 PUSH1 0xC0 DUP4 ADD DUP6 PUSH2 0x1624 JUMP JUMPDEST PUSH2 0x1884 PUSH1 0xE0 DUP4 ADD DUP5 PUSH2 0x156D JUMP JUMPDEST SWAP10 SWAP9 POP POP POP POP POP POP POP POP POP JUMP JUMPDEST PUSH1 0x0 DUP2 MLOAD SWAP1 POP PUSH2 0x18A0 DUP2 PUSH2 0x141F JUMP JUMPDEST SWAP3 SWAP2 POP POP JUMP JUMPDEST PUSH1 0x0 DUP1 PUSH1 0x0 PUSH1 0x60 DUP5 DUP7 SUB SLT ISZERO PUSH2 0x18BF JUMPI PUSH2 0x18BE PUSH2 0x13B2 JUMP JUMPDEST JUMPDEST PUSH1 0x0 PUSH2 0x18CD DUP7 DUP3 DUP8 ADD PUSH2 0x1891 JUMP JUMPDEST SWAP4 POP POP PUSH1 0x20 PUSH2 0x18DE DUP7 DUP3 DUP8 ADD PUSH2 0x1891 JUMP JUMPDEST SWAP3 POP POP PUSH1 0x40 PUSH2 0x18EF DUP7 DUP3 DUP8 ADD PUSH2 0x1891 JUMP JUMPDEST SWAP2 POP POP SWAP3 POP SWAP3 POP SWAP3 JUMP JUMPDEST PUSH1 0x0 PUSH1 0x20 DUP3 ADD SWAP1 POP PUSH2 0x190E PUSH1 0x0 DUP4 ADD DUP5 PUSH2 0x1624 JUMP JUMPDEST SWAP3 SWAP2 POP POP JUMP JUMPDEST PUSH1 0x0 PUSH1 0x20 DUP3 DUP5 SUB SLT ISZERO PUSH2 0x192A JUMPI PUSH2 0x1929 PUSH2 0x13B2 JUMP JUMPDEST JUMPDEST PUSH1 0x0 PUSH2 0x1938 DUP5 DUP3 DUP6 ADD PUSH2 0x1891 JUMP JUMPDEST SWAP2 POP POP SWAP3 SWAP2 POP POP JUMP JUMPDEST PUSH1 0x0 PUSH1 0x60 DUP3 ADD SWAP1 POP PUSH2 0x1956 PUSH1 0x0 DUP4 ADD DUP7 PUSH2 0x156D JUMP JUMPDEST PUSH2 0x1963 PUSH1 0x20 DUP4 ADD DUP6 PUSH2 0x156D JUMP JUMPDEST PUSH2 0x1970 PUSH1 0x40 DUP4 ADD DUP5 PUSH2 0x1624 JUMP JUMPDEST SWAP5 SWAP4 POP POP POP POP JUMP JUMPDEST PUSH1 0x0 PUSH1 0x40 DUP3 ADD SWAP1 POP PUSH2 0x198D PUSH1 0x0 DUP4 ADD DUP6 PUSH2 0x156D JUMP JUMPDEST PUSH2 0x199A PUSH1 0x20 DUP4 ADD DUP5 PUSH2 0x156D JUMP JUMPDEST SWAP4 SWAP3 POP POP POP JUMP JUMPDEST PUSH1 0x0 PUSH1 0x40 DUP3 ADD SWAP1 POP DUP2 DUP2 SUB PUSH1 0x0 DUP4 ADD MSTORE PUSH2 0x19BB DUP2 DUP6 PUSH2 0x172F JUMP JUMPDEST SWAP1 POP PUSH2 0x19CA PUSH1 0x20 DUP4 ADD DUP5 PUSH2 0x156D JUMP JUMPDEST SWAP4 SWAP3 POP POP POP JUMP JUMPDEST PUSH1 0x0 DUP2 PUSH1 0x60 SHL SWAP1 POP SWAP2 SWAP1 POP JUMP JUMPDEST PUSH1 0x0 PUSH2 0x19E9 DUP3 PUSH2 0x19D1 JUMP JUMPDEST SWAP1 POP SWAP2 SWAP1 POP JUMP JUMPDEST PUSH1 0x0 PUSH2 0x19FB DUP3 PUSH2 0x19DE JUMP JUMPDEST SWAP1 POP SWAP2 SWAP1 POP JUMP JUMPDEST PUSH2 0x1A13 PUSH2 0x1A0E DUP3 PUSH2 0x13D7 JUMP JUMPDEST PUSH2 0x19F0 JUMP JUMPDEST DUP3 MSTORE POP POP JUMP JUMPDEST PUSH1 0x0 PUSH2 0x1A25 DUP3 DUP6 PUSH2 0x1A02 JUMP JUMPDEST PUSH1 0x14 DUP3 ADD SWAP2 POP PUSH2 0x1A35 DUP3 DUP5 PUSH2 0x1A02 JUMP JUMPDEST PUSH1 0x14 DUP3 ADD SWAP2 POP DUP2 SWAP1 POP SWAP4 SWAP3 POP POP POP JUMP JUMPDEST PUSH1 0x0 DUP2 SWAP1 POP SWAP3 SWAP2 POP POP JUMP JUMPDEST PUSH32 0xFF00000000000000000000000000000000000000000000000000000000000000 PUSH1 0x0 DUP3 ADD MSTORE POP JUMP JUMPDEST PUSH1 0x0 PUSH2 0x1A86 PUSH1 0x1 DUP4 PUSH2 0x1A45 JUMP JUMPDEST SWAP2 POP PUSH2 0x1A91 DUP3 PUSH2 0x1A50 JUMP JUMPDEST PUSH1 0x1 DUP3 ADD SWAP1 POP SWAP2 SWAP1 POP JUMP JUMPDEST PUSH1 0x0 DUP2 SWAP1 POP SWAP2 SWAP1 POP JUMP JUMPDEST PUSH1 0x0 DUP2 SWAP1 POP SWAP2 SWAP1 POP JUMP JUMPDEST PUSH2 0x1AC1 PUSH2 0x1ABC DUP3 PUSH2 0x1A9C JUMP JUMPDEST PUSH2 0x1AA6 JUMP JUMPDEST DUP3 MSTORE POP POP JUMP JUMPDEST PUSH32 0xE18A34EB0E04B04F7A0AC29A6E80748DCA96319B42C54D679CB821DCA90C6303 PUSH1 0x0 DUP3 ADD MSTORE POP JUMP JUMPDEST PUSH1 0x0 PUSH2 0x1AFD PUSH1 0x20 DUP4 PUSH2 0x1A45 JUMP JUMPDEST SWAP2 POP PUSH2 0x1B08 DUP3 PUSH2 0x1AC7 JUMP JUMPDEST PUSH1 0x20 DUP3 ADD SWAP1 POP SWAP2 SWAP1 POP JUMP JUMPDEST PUSH1 0x0 PUSH2 0x1B1E DUP3 PUSH2 0x1A79 JUMP JUMPDEST SWAP2 POP PUSH2 0x1B2A DUP3 DUP6 PUSH2 0x1A02 JUMP JUMPDEST PUSH1 0x14 DUP3 ADD SWAP2 POP PUSH2 0x1B3A DUP3 DUP5 PUSH2 0x1AB0 JUMP JUMPDEST PUSH1 0x20 DUP3 ADD SWAP2 POP PUSH2 0x1B49 DUP3 PUSH2 0x1AF0 JUMP JUMPDEST SWAP2 POP DUP2 SWAP1 POP SWAP4 SWAP3 POP POP POP JUMP JUMPDEST PUSH32 0x556E697377617056324C6962726172793A204944454E544943414C5F41444452 PUSH1 0x0 DUP3 ADD MSTORE PUSH32 0x4553534553000000000000000000000000000000000000000000000000000000 PUSH1 0x20 DUP3 ADD MSTORE POP JUMP JUMPDEST PUSH1 0x0 PUSH2 0x1BB1 PUSH1 0x25 DUP4 PUSH2 0x16DA JUMP JUMPDEST SWAP2 POP PUSH2 0x1BBC DUP3 PUSH2 0x1B55 JUMP JUMPDEST PUSH1 0x40 DUP3 ADD SWAP1 POP SWAP2 SWAP1 POP JUMP JUMPDEST PUSH1 0x0 PUSH1 0x20 DUP3 ADD SWAP1 POP DUP2 DUP2 SUB PUSH1 0x0 DUP4 ADD MSTORE PUSH2 0x1BE0 DUP2 PUSH2 0x1BA4 JUMP JUMPDEST SWAP1 POP SWAP2 SWAP1 POP JUMP JUMPDEST PUSH32 0x556E697377617056324C6962726172793A205A45524F5F414444524553530000 PUSH1 0x0 DUP3 ADD MSTORE POP JUMP JUMPDEST PUSH1 0x0 PUSH2 0x1C1D PUSH1 0x1E DUP4 PUSH2 0x16DA JUMP JUMPDEST SWAP2 POP PUSH2 0x1C28 DUP3 PUSH2 0x1BE7 JUMP JUMPDEST PUSH1 0x20 DUP3 ADD SWAP1 POP SWAP2 SWAP1 POP JUMP JUMPDEST PUSH1 0x0 PUSH1 0x20 DUP3 ADD SWAP1 POP DUP2 DUP2 SUB PUSH1 0x0 DUP4 ADD MSTORE PUSH2 0x1C4C DUP2 PUSH2 0x1C10 JUMP JUMPDEST SWAP1 POP SWAP2 SWAP1 POP JUMP INVALID LOG2 PUSH5 0x6970667358 0x22 SLT KECCAK256 STOP 0xD6 0x2D 0xED CALLDATALOAD JUMPDEST CALLDATASIZE 0xF SELFBALANCE LT 0x2F 0x4D PUSH6 0x72E1BC4ABEB8 SUB 0xE2 LOG4 DIFFICULTY 0xC7 POP BALANCE 0xF9 SGT 0x5C JUMP SLOAD 0xEE PUSH5 0x736F6C6343 STOP ADDMOD MULMOD STOP CALLER "},"methodIdentifiers":{"balances(address,address)":"c23f001f","deposit(address,uint256)":"47e7ef24","execute(address,address,uint256,uint256,uint256,address)":"cc238da7","executeWithSLPTokenAddress(address,address,uint256,uint256,uint256,address,address)":"3d687d7c"}}}}}