{"contracts/WalletFactory.sol":{"WalletFactory":{"abi":[{"anonymous":false,"inputs":[{"indexed":false,"internalType":"address","name":"address_","type":"address"}],"name":"Deployed","type":"event"},{"inputs":[{"internalType":"bytes","name":"bytecode","type":"bytes"}],"name":"walletAction","outputs":[],"stateMutability":"nonpayable","type":"function"}],"evm":{"bytecode":{"linkReferences":{},"object":"608060405234801561001057600080fd5b50610255806100206000396000f3fe608060405234801561001057600080fd5b506004361061002b5760003560e01c8063e6e671cb14610030575b600080fd5b61004a60048036038101906100459190610176565b61004c565b005b600082828080601f016020809104026020016040519081016040528093929190818152602001838380828437600081840152601f19601f820116905080830192505050505050509050600060603373ffffffffffffffffffffffffffffffffffffffff16901b60001b905060008260200183518381836000f5925050507ff40fcec21964ffb566044d083b4073f29f7f7929110ea19e1b3ebe375d89055e816040516100f89190610204565b60405180910390a15050505050565b600080fd5b600080fd5b600080fd5b600080fd5b600080fd5b60008083601f84011261013657610135610111565b5b8235905067ffffffffffffffff81111561015357610152610116565b5b60208301915083600182028301111561016f5761016e61011b565b5b9250929050565b6000806020838503121561018d5761018c610107565b5b600083013567ffffffffffffffff8111156101ab576101aa61010c565b5b6101b785828601610120565b92509250509250929050565b600073ffffffffffffffffffffffffffffffffffffffff82169050919050565b60006101ee826101c3565b9050919050565b6101fe816101e3565b82525050565b600060208201905061021960008301846101f5565b9291505056fea2646970667358221220c6f81220c5f8816cdf75340831702c80ae52e0f492d3b60b3f7c9c9ecde666ac64736f6c63430008090033","opcodes":"PUSH1 0x80 PUSH1 0x40 MSTORE CALLVALUE DUP1 ISZERO PUSH2 0x10 JUMPI PUSH1 0x0 DUP1 REVERT JUMPDEST POP PUSH2 0x255 DUP1 PUSH2 0x20 PUSH1 0x0 CODECOPY PUSH1 0x0 RETURN INVALID PUSH1 0x80 PUSH1 0x40 MSTORE CALLVALUE DUP1 ISZERO PUSH2 0x10 JUMPI PUSH1 0x0 DUP1 REVERT JUMPDEST POP PUSH1 0x4 CALLDATASIZE LT PUSH2 0x2B JUMPI PUSH1 0x0 CALLDATALOAD PUSH1 0xE0 SHR DUP1 PUSH4 0xE6E671CB EQ PUSH2 0x30 JUMPI JUMPDEST PUSH1 0x0 DUP1 REVERT JUMPDEST PUSH2 0x4A PUSH1 0x4 DUP1 CALLDATASIZE SUB DUP2 ADD SWAP1 PUSH2 0x45 SWAP2 SWAP1 PUSH2 0x176 JUMP JUMPDEST PUSH2 0x4C JUMP JUMPDEST STOP JUMPDEST PUSH1 0x0 DUP3 DUP3 DUP1 DUP1 PUSH1 0x1F ADD PUSH1 0x20 DUP1 SWAP2 DIV MUL PUSH1 0x20 ADD PUSH1 0x40 MLOAD SWAP1 DUP2 ADD PUSH1 0x40 MSTORE DUP1 SWAP4 SWAP3 SWAP2 SWAP1 DUP2 DUP2 MSTORE PUSH1 0x20 ADD DUP4 DUP4 DUP1 DUP3 DUP5 CALLDATACOPY PUSH1 0x0 DUP2 DUP5 ADD MSTORE PUSH1 0x1F NOT PUSH1 0x1F DUP3 ADD AND SWAP1 POP DUP1 DUP4 ADD SWAP3 POP POP POP POP POP POP POP SWAP1 POP PUSH1 0x0 PUSH1 0x60 CALLER PUSH20 0xFFFFFFFFFFFFFFFFFFFFFFFFFFFFFFFFFFFFFFFF AND SWAP1 SHL PUSH1 0x0 SHL SWAP1 POP PUSH1 0x0 DUP3 PUSH1 0x20 ADD DUP4 MLOAD DUP4 DUP2 DUP4 PUSH1 0x0 CREATE2 SWAP3 POP POP POP PUSH32 0xF40FCEC21964FFB566044D083B4073F29F7F7929110EA19E1B3EBE375D89055E DUP2 PUSH1 0x40 MLOAD PUSH2 0xF8 SWAP2 SWAP1 PUSH2 0x204 JUMP JUMPDEST PUSH1 0x40 MLOAD DUP1 SWAP2 SUB SWAP1 LOG1 POP POP POP POP POP JUMP JUMPDEST PUSH1 0x0 DUP1 REVERT JUMPDEST PUSH1 0x0 DUP1 REVERT JUMPDEST PUSH1 0x0 DUP1 REVERT JUMPDEST PUSH1 0x0 DUP1 REVERT JUMPDEST PUSH1 0x0 DUP1 REVERT JUMPDEST PUSH1 0x0 DUP1 DUP4 PUSH1 0x1F DUP5 ADD SLT PUSH2 0x136 JUMPI PUSH2 0x135 PUSH2 0x111 JUMP JUMPDEST JUMPDEST DUP3 CALLDATALOAD SWAP1 POP PUSH8 0xFFFFFFFFFFFFFFFF DUP2 GT ISZERO PUSH2 0x153 JUMPI PUSH2 0x152 PUSH2 0x116 JUMP JUMPDEST JUMPDEST PUSH1 0x20 DUP4 ADD SWAP2 POP DUP4 PUSH1 0x1 DUP3 MUL DUP4 ADD GT ISZERO PUSH2 0x16F JUMPI PUSH2 0x16E PUSH2 0x11B JUMP JUMPDEST JUMPDEST SWAP3 POP SWAP3 SWAP1 POP JUMP JUMPDEST PUSH1 0x0 DUP1 PUSH1 0x20 DUP4 DUP6 SUB SLT ISZERO PUSH2 0x18D JUMPI PUSH2 0x18C PUSH2 0x107 JUMP JUMPDEST JUMPDEST PUSH1 0x0 DUP4 ADD CALLDATALOAD PUSH8 0xFFFFFFFFFFFFFFFF DUP2 GT ISZERO PUSH2 0x1AB JUMPI PUSH2 0x1AA PUSH2 0x10C JUMP JUMPDEST JUMPDEST PUSH2 0x1B7 DUP6 DUP3 DUP7 ADD PUSH2 0x120 JUMP JUMPDEST SWAP3 POP SWAP3 POP POP SWAP3 POP SWAP3 SWAP1 POP JUMP JUMPDEST PUSH1 0x0 PUSH20 0xFFFFFFFFFFFFFFFFFFFFFFFFFFFFFFFFFFFFFFFF DUP3 AND SWAP1 POP SWAP2 SWAP1 POP JUMP JUMPDEST PUSH1 0x0 PUSH2 0x1EE DUP3 PUSH2 0x1C3 JUMP JUMPDEST SWAP1 POP SWAP2 SWAP1 POP JUMP JUMPDEST PUSH2 0x1FE DUP2 PUSH2 0x1E3 JUMP JUMPDEST DUP3 MSTORE POP POP JUMP JUMPDEST PUSH1 0x0 PUSH1 0x20 DUP3 ADD SWAP1 POP PUSH2 0x219 PUSH1 0x0 DUP4 ADD DUP5 PUSH2 0x1F5 JUMP JUMPDEST SWAP3 SWAP2 POP POP JUMP INVALID LOG2 PUSH5 0x6970667358 0x22 SLT KECCAK256 0xC6 0xF8 SLT KECCAK256 0xC5 0xF8 DUP2 PUSH13 0xDF75340831702C80AE52E0F492 0xD3 0xB6 SIGNEXTEND EXTCODEHASH PUSH29 0x9C9ECDE666AC64736F6C63430008090033000000000000000000000000 "},"methodIdentifiers":{"walletAction(bytes)":"e6e671cb"}}}}}