{
  "_format": "hh-sol-artifact-1",
  "contractName": "WalletFactory",
  "sourceName": "contracts/WalletFactory.sol",
  "abi": [
    {
      "anonymous": false,
      "inputs": [
        {
          "indexed": false,
          "internalType": "address",
          "name": "address_",
          "type": "address"
        }
      ],
      "name": "Deployed",
      "type": "event"
    },
    {
      "inputs": [
        {
          "internalType": "bytes",
          "name": "bytecode",
          "type": "bytes"
        }
      ],
      "name": "walletAction",
      "outputs": [],
      "stateMutability": "nonpayable",
      "type": "function"
    }
  ],
  "bytecode": "0x608060405234801561001057600080fd5b50610255806100206000396000f3fe608060405234801561001057600080fd5b506004361061002b5760003560e01c8063e6e671cb14610030575b600080fd5b61004a60048036038101906100459190610176565b61004c565b005b600082828080601f016020809104026020016040519081016040528093929190818152602001838380828437600081840152601f19601f820116905080830192505050505050509050600060603373ffffffffffffffffffffffffffffffffffffffff16901b60001b905060008260200183518381836000f5925050507ff40fcec21964ffb566044d083b4073f29f7f7929110ea19e1b3ebe375d89055e816040516100f89190610204565b60405180910390a15050505050565b600080fd5b600080fd5b600080fd5b600080fd5b600080fd5b60008083601f84011261013657610135610111565b5b8235905067ffffffffffffffff81111561015357610152610116565b5b60208301915083600182028301111561016f5761016e61011b565b5b9250929050565b6000806020838503121561018d5761018c610107565b5b600083013567ffffffffffffffff8111156101ab576101aa61010c565b5b6101b785828601610120565b92509250509250929050565b600073ffffffffffffffffffffffffffffffffffffffff82169050919050565b60006101ee826101c3565b9050919050565b6101fe816101e3565b82525050565b600060208201905061021960008301846101f5565b9291505056fea2646970667358221220c6f81220c5f8816cdf75340831702c80ae52e0f492d3b60b3f7c9c9ecde666ac64736f6c63430008090033",
  "linkReferences": {},
  "deployedLinkReferences": {}
}